:100000000C94A4000C94C1000C94C1000C94C10089
:100010000C94C1000C94C1000C94C1000C94C1005C
:100020000C94C1000C94C1000C94C1000C94C1004C
:100030000C94C1000C94C1000C94C1000C94C1003C
:100040000C94C1000C94C1000C9422360C94C10095
:100050000C94C1000C94C1000C94C1000C94C1001C
:100060000C94C1000C94C1000C94C1000C94C1000C
:100070000C94C1000C94C1000C94C1004C293A2985
:1000800092298A29782966294C2B3A2B322B202B4E
:10009000182B0A2BFF2AED2ADB2AC92AB72AA52A00
:1000A000942A892A722A5A2A422A2A2A122AFA29A0
:1000B000E229CA29B2299A29B628A3289228872892
:1000C000702856283C2822281129F928E028CB2816
:1000D00029297127FA27F727F427F127EE279827F0
:1000E000FD27C72CD92CEB2CF32CFB2C0D2D1F2D11
:1000F000542B662B6E2B802B882B962BA12BB32B8E
:10010000C52BD72BE92BFB2B0C2C172C2E2C462C7C
:10011000272D3F2D572D6F2D872D9F2DB72DCF2D9F
:10012000E42DF72D082E132E2A2E422E5A2E722E33
:100130005E2C762C8E2CA32CB42C1C281928162867
:100140001328102800281F2811241FBECFEFD8E045
:10015000DEBFCDBF16E0A0E0B1E0E4E3FDE602C003
:1001600005900D92AA31B107D9F726E0AAE1B6E0D1
:1001700001C01D92A438B207E1F70E94FF330C942E
:1001800098360C94000001978F30910528F4FC01FB
:10019000E753FE4F8081089580E30895AF92BF92A8
:1001A000CF92DF92EF92FF920F931F93CF93DF9343
:1001B000CDB7DEB7EC970FB6F894DEBF0FBECDBF5C
:1001C0008E010F5F1F4F2CE3D8011D922A95E9F78E
:1001D000141615060CF08CC09C0158017C01E40E2D
:1001E000F51EF801D9018D919D0187FF07C0C080E0
:1001F000D180B8E0CB0ED11CD182C08286FF07C06F
:10020000C080D18094E0C90ED11CD182C08285FF0C
:1002100007C0C080D180A2E0CA0ED11CD182C082AA
:1002200084FF07C0C080D180BFEFCB1ADB0AD18228
:10023000C08283FF07C0C280D38098E0C90ED11C62
:10024000D382C28282FF07C0C280D380A4E0CA0EDC
:10025000D11CD382C28281FF07C0C280D380B2E0AA
:10026000CB0ED11CD382C28280FF05C082819381D4
:1002700001969383828334962E153F0509F0B2CF01
:10028000FB013196440F551F440F551F400F511F5E
:100290001DC087539E4FDC012C91CF010197DC01DB
:1002A0002C93D50112968D919C91139701978F30C5
:1002B0009105A8F487539E4FDC018C918083B4E0B4
:1002C000AB0EB11C3296A416B50691F0D5018D91F6
:1002D0009C9101978F309105E0F220E3DECF80E31F
:1002E0008083B4E0AB0EB11C3296A416B50671F74C
:1002F000EC960FB6F894DEBF0FBECDBFDF91CF9165
:100300001F910F91FF90EF90DF90CF90BF90AF9033
:100310000895FC012081222341F0319680E090E095
:10032000019621912111FCCF089580E090E008957D
:100330008091C00085FFFCCF8DE08093C600809146
:10034000C00085FFFCCF8AE08093C6008091C0008A
:1003500085FFFCCF0895FF920F931F93CF93DF93F8
:10036000CDB7DEB729970FB6F894DEBF0FBECDBF6D
:1003700085E0E3E9F1E0DE01119601900D928A95A6
:10038000E1F71E821F821886198600E010E0F12C2A
:1003900044E050E0BE016F5F7F4FCE0106960E94A1
:1003A0005536892B71F08091C00087FFFCCFFE820B
:1003B0001F8308878091C6008987F12E102F082F90
:1003C000E7CF29960FB6F894DEBF0FBECDBFDF9101
:1003D000CF911F910F91FF9008950F931F93CF938B
:1003E000DF93CDB7DEB727970FB6F894DEBF0FBE09
:1003F000CDBF8AE39FE6ABE6B0E089839A83AB8307
:10040000BC831D821E821F8210E000E043E050E0AA
:10041000BE016F5F7F4FCE0105960E945536892B36
:1004200061F08091C00087FFFCCF0D831E83809117
:10043000C6008F83012F182FE9CF27960FB6F894A7
:10044000DEBF0FBECDBFDF91CF911F910F910895F9
:10045000FF920F931F93CF93DF93CDB7DEB729970A
:100460000FB6F894DEBF0FBECDBF8091C00085FFF0
:10047000FCCF81E48093C6008091C00085FFFCCF53
:1004800084E58093C6008091C00085FFFCCF8DE09D
:100490008093C6008091C00085FFFCCF8AE08093E6
:1004A000C6008091C00085FFFCCF85E0E3E9F1E064
:1004B000DE01119601900D928A95E1F71E821F824E
:1004C0001886198600E010E0F12C44E050E0BE01EF
:1004D0006F5F7F4FCE0106960E945536892B71F0D3
:1004E0008091C00087FFFCCFFE821F830887809128
:1004F000C6008987F12E102F082FE7CF29960FB657
:10050000F894DEBF0FBECDBFDF91CF911F910F9149
:10051000FF900895FF920F931F93CF93DF93CDB772
:10052000DEB760970FB6F894DEBF0FBECDBF87E091
:10053000E8E9F1E0DE01119601900D928A95E1F76C
:10054000FE0131969E01295F3F4F8091C00085FFDB
:10055000FCCF81918093C600E217F307B1F7809139
:10056000C00085FFFCCF8DE08093C6008091C00065
:1005700085FFFCCF8AE08093C6008091C00085FF94
:10058000FCCF85E0E3E9F1E0DE01189601900D92E1
:100590008A95E1F71D861E861F86188A00E010E006
:1005A000F12C44E050E0BE01685F7F4FCE010D9614
:1005B0000E945536892B71F08091C00087FFFCCFD7
:1005C000FD861E870F878091C600888BF12E102F25
:1005D000082FE7CF60960FB6F894DEBF0FBECDBFF1
:1005E000DF91CF911F910F91FF900895DF92EF92CD
:1005F000FF920F931F93CF93DF93CDB7DEB7629730
:100600000FB6F894DEBF0FBECDBFAC019B01FC015D
:100610008081882309F4BCC03196E12CF12C8FEF46
:10062000E81AF80A81918111FACFF90180818823B3
:1006300009F4B4C0319660E070E06F5F7F4F819144
:100640008111FBCF89E0E7E6F1E0DE011196019030
:100650000D928A95E1F7FE0131968E01065F1F4FDC
:100660009091C00095FFFCCF81918093C600E01768
:10067000F107B1F78091C00085FFFCCF82E2809343
:10068000C600E114F10469F0FA01E40EF51E909140
:10069000C00095FFFCCF81918093C600EE15FF0549
:1006A000B1F78091C00085FFFCCF82E28093C60045
:1006B0008091C00085FFFCCF8CE28093C6008091C2
:1006C000C00085FFFCCF82E28093C60061157105F2
:1006D00069F0F901620F731F8091C00085FFFCCFA4
:1006E00081918093C600E617F707B1F78091C000AB
:1006F00085FFFCCF82E28093C6008091C00085FF19
:10070000FCCF8091C00085FFFCCF8DE08093C600B8
:100710008091C00085FFFCCF8AE08093C600809165
:10072000C00085FFFCCF85E0E3E9F1E0DE011A9629
:1007300001900D928A95E1F71F86188A198A1A8A04
:10074000E12CF12CD12C44E050E0B801CE010F9601
:100750000E945536892B71F08091C00087FFFCCF35
:10076000DF86F88AE98A8091C6008A8BDF2CFE2C0E
:10077000E82EE9CF62960FB6F894DEBF0FBECDBF6C
:10078000DF91CF911F910F91FF90EF90DF9008952F
:10079000E12CF12CF901808181114CCF60E070E0F7
:1007A00051CFFF920F931F93CF93DF93CDB7DEB757
:1007B00064970FB6F894DEBF0FBECDBFAC018BE0DF
:1007C000EFE9F1E0DE01119601900D928A95E1F7D3
:1007D000FE0131969E01255F3F4F9091C00095FF2D
:1007E000FCCF91919093C600E217F307B1F7909177
:1007F000C00095FFFCCF4230510509F45FC0433083
:10080000510509F453C04130510509F447C08091A6
:10081000C00085FFFCCF8DE08093C6008091C000B2
:1008200085FFFCCF8AE08093C6008091C00085FFE1
:10083000FCCF85E0E3E9F1E0DE011C9601900D922A
:100840008A95E1F7198A1A8A1B8A1C8A00E010E04F
:10085000F12C44E050E0BE01645F7F4FCE01419631
:100860000E945536892B71F08091C00087FFFCCF24
:10087000F98A1A8B0B8B8091C6008C8BF12E102F6E
:10088000082FE7CF64960FB6F894DEBF0FBECDBF3A
:10089000DF91CF911F910F91FF90089581E3809395
:1008A000C6008091C00085FFB2CFB5CF83E38093AF
:1008B000C6008091C00085FFAACFADCF82E38093B0
:1008C000C6008091C00085FFA2CFA5CFFF920F93F5
:1008D0001F93CF93DF93CDB7DEB764970FB6F8942D
:1008E000DEBF0FBECDBFAC019BE0EAEAF1E0DE0166
:1008F000119601900D929A95E1F7FE0131969E01B5
:10090000255F3F4F9091C00095FFFCCF9191909350
:10091000C600E217F307B1F79091C00095FFFCCF36
:100920004115510509F44DC04130510519F481E3D9
:100930008093C6008091C00085FFFCCF8DE080933E
:10094000C6008091C00085FFFCCF8AE08093C6007E
:100950008091C00085FFFCCF85E0E3E9F1E0DE0196
:100960001C9601900D928A95E1F7198A1A8A1B8AC2
:100970001C8A00E010E0F12C44E050E0BE01645F0E
:100980007F4FCE0141960E945536892B71F08091A0
:10099000C00087FFFCCFF98A1A8B0B8B8091C600B1
:1009A0008C8BF12E102F082FE7CF64960FB6F8949A
:1009B000DEBF0FBECDBFDF91CF911F910F91FF9092
:1009C000089580E38093C6008091C00085FFB2CF78
:1009D000B5CFAF92BF92CF92DF92EF92FF920F937B
:1009E0001F93CF93DF93CDB7DEB72C970FB6F89454
:1009F000DEBF0FBECDBF7C01FB018081882309F4DF
:100A000004C13196A12CB12C8FEFA81AB80A81919C
:100A10008111FACFFA018081882309F4FCC0319654
:100A2000C12CD12C8FEFC81AD80A81918111FACF2D
:100A3000F9018081882309F4E5C0319600E010E0D7
:100A40000F5F1F4F81918111FBCF8CE0E1E7F1E057
:100A5000DE01119601900D928A95E1F7FE01319623
:100A6000DE011D969091C00095FFFCCF819180938F
:100A7000C600EA17FB07B1F78091C00085FFFCCFE5
:100A8000F2E0EF16F10409F4B5C00CF092C0E114E5
:100A9000F10409F4A7C0EA94EF2819F481E38093E4
:100AA000C6008091C00085FFFCCF8CE28093C60019
:100AB0008091C00085FFFCCF82E28093C600A11424
:100AC000B10469F0FB01A60EB71E8091C00085FF3E
:100AD000FCCF81918093C600EA15FB05B1F78091A8
:100AE000C00085FFFCCF82E28093C6008091C000E9
:100AF00085FFFCCF8CE28093C6008091C00085FF0B
:100B0000FCCF82E28093C600C114D10469F0FA01DF
:100B1000C40ED51E8091C00085FFFCCF81918093CB
:100B2000C600EC15FD05B1F78091C00085FFFCCF34
:100B300082E28093C6008091C00085FFFCCF8CE2EA
:100B40008093C6008091C00085FFFCCF0115110580
:100B500069F0F901020F131F8091C00085FFFCCFDF
:100B600081918093C600E017F107B1F78091C00032
:100B700085FFFCCF8DE08093C6008091C00085FF8B
:100B8000FCCF8AE08093C6008091C00085FFFCCF37
:100B90002C960FB6F894DEBF0FBECDBFDF91CF917C
:100BA0001F910F91FF90EF90DF90CF90BF90AF908B
:100BB0000895F3E0EF16F10469F084E0E816F1041B
:100BC00009F06FCF84E38093C6008091C00085FF59
:100BD00068CF6BCF83E38093C6008091C00085FF10
:100BE00060CF63CF80E38093C6008091C00085FF13
:100BF00058CF5BCF82E38093C6008091C00085FF11
:100C000050CF53CF00E010E020CFA12CB12CFA013F
:100C10008081811104CFC12CD12C0ACFAF92BF9219
:100C2000CF92DF92EF92FF920F931F93CF93DF93B8
:100C3000CDB7DEB765970FB6F894DEBF0FBECDBF58
:100C40006C015B017A018CE0EEE7F1E0DE011196C8
:100C500001900D928A95E1F787E0EBE8F1E0DE0183
:100C60001D9601900D928A95E1F78E010C5E1F4F43
:100C70004AE0B80187E290E00E946336DE011296F6
:100C8000FE013D969091C00095FFFCCF8D91809321
:100C9000C600AE17BF07B1F78091C00085FFFCCF3B
:100CA00022E0C216D10409F4A7C00CF081C0C1141F
:100CB000D10409F499C0CA94CD2819F481E3809332
:100CC000C6008091C00085FFFCCF8CE28093C600F7
:100CD0008091C00085FFFCCF8C898093C6008091F5
:100CE000C00085FFFCCF8D898093C6008091C00035
:100CF00085FFFCCF8DE08093C6008091C00085FF0A
:100D0000FCCF8AE08093C6008091C00085FFFCCFB5
:100D10009FE728E381E0915020408040E1F700C048
:100D200000008091C00085FFFCCF81918093C600B8
:100D3000E017F107B1F78091C00085FFFCCF92E08A
:100D4000E916F10409F44CC00CF43FC093E0E91635
:100D5000F10409F441C024E0E216F10419F484E33B
:100D60008093C6008091C00085FFFCCF8AE380930A
:100D7000C600F5019501295D3F4F8091C00085FFB8
:100D8000FCCF81918093C600E217F307B1F7659617
:100D90000FB6F894DEBF0FBECDBFDF91CF911F918C
:100DA0000F91FF90EF90DF90CF90BF90AF9008959C
:100DB00023E0C216D104E1F084E0C816D10409F0A2
:100DC00080CF84E38093C6007CCFEA94EF2851F66D
:100DD00081E38093C600C6CF83E38093C600C2CF71
:100DE00082E38093C600BECF80E38093C60069CFC4
:100DF00083E38093C60065CF82E38093C60061CF12
:100E00008091C00085FFFCCF8AE08093C60080916E
:100E1000C00085FFFCCF8DE08093C6000895DC0103
:100E2000FB019C918081981317C011969C9111979A
:100E30008181981311C012969C9112978281981308
:100E40000BC013969C9113978381981305C081E082
:100E500014962C919481291380E008952C9A08957A
:100E60002C98089584B1806B84B984B1877B84B950
:100E70008CB581658CBD2C9A08958EBD0DB407FE8E
:100E8000FDCF8EB50895EF92FF920F931F93CF93EE
:100E9000DF93EC0168ED71E00E944C367C016CEE52
:100EA00071E0CE010E944C36892B09F47EC101E02D
:100EB00010E0EF2809F07CC16EEF71E0CE010E94D6
:100EC0004C36892B11F403E010E063E172E0CE01AF
:100ED0000E944C36892B11F404E010E069E272E0C4
:100EE000CE010E944C36892B11F405E010E061E43C
:100EF00072E0CE010E944C36892B11F406E010E01E
:100F00006BE572E0CE010E944C36892B11F407E0AC
:100F100010E066E772E0CE010E944C36892B11F496
:100F200008E010E060E972E0CE010E944C36892BA7
:100F300011F409E010E06DEA72E0CE010E944C3637
:100F4000892B11F40AE010E068EC72E0CE010E94F7
:100F50004C36892B11F40BE010E069ED72E0CE0104
:100F60000E944C36892B11F40CE010E06BEE72E01D
:100F7000CE010E944C36892B11F40DE010E063E0A5
:100F800073E0CE010E944C36892B11F40EE010E084
:100F900066E273E0CE010E944C36892B11F40FE01B
:100FA00010E060E373E0CE010E944C36892B11F40F
:100FB00000E110E065E473E0CE010E944C36892B1D
:100FC00011F401E110E064E573E0CE010E944C36BB
:100FD000892B11F402E110E06FE673E0CE010E946C
:100FE0004C36892B11F403E110E06EE873E0CE017A
:100FF0000E944C36892B11F404E110E066EA73E09C
:10100000CE010E944C36892B11F405E110E063EC0F
:1010100073E0CE010E944C36892B11F406E110E0FA
:101020006AED73E0CE010E944C36892B11F407E182
:1010300010E06EEE73E0CE010E944C36892B11F465
:1010400008E110E06AE074E0CE010E944C36892B82
:1010500011F409E110E06CE174E0CE010E944C361D
:10106000892B11F40AE110E069E374E0CE010E94DB
:101070004C36892B11F40BE110E061E574E0CE01F0
:101080000E944C36892B11F40CE110E06DE674E0FF
:10109000CE010E944C36892B11F40DE110E06AE775
:1010A00074E0CE010E944C36892B11F40EE110E061
:1010B00067E974E0CE010E944C36892B11F40FE1F0
:1010C00010E062EB74E0CE010E944C36892B11F4E3
:1010D00000E210E06EEC74E0CE010E944C36892BE9
:1010E00011F401E210E06FEE74E0CE010E944C3684
:1010F000892B11F402E210E06CEF74E0CE010E9443
:101100004C36892B11F403E210E067E075E0CE0164
:101110000E944C36892B11F404E210E062E175E084
:10112000CE010E944C36892B11F405E210E06CE1EF
:1011300075E0CE010E944C36892B11F406E210E0D6
:1011400068E275E0CE010E944C36892B11F406E26C
:1011500010E063E475E0CE010E944C36892B11F457
:1011600008E210E066E575E0CE010E944C36892B5E
:1011700011F409E210E064E775E0CE010E944C36FC
:10118000892B11F40AE210E064E975E0CE010E94B7
:101190004C36892B11F40BE210E0C801DF91CF919E
:1011A0001F910F91FF90EF90089502E010E084CE20
:1011B00000E082CE2C98FC01349621E030E01EBC89
:1011C0002130310529F40DB407FEFDCF8EB508C0DE
:1011D0000DB407FEFDCF8EB580832530310521F09B
:1011E0002F5F3F4F3197EBCF2C9A08952C98FC013D
:1011F000349621E030E094E02130310559F49EBD71
:101200000DB407FEFDCF8EB52F5F3F4F31972130D4
:101210003105A9F31EBC0DB407FEFDCF8EB580834A
:101220002530310589F72C9A08952C98FC013496C5
:1012300021E030E096E02130310559F49EBD0DB437
:1012400007FEFDCF8EB52F5F3F4F3197213031051F
:10125000A9F31EBC0DB407FEFDCF8EB580832530EB
:10126000310589F72C9A2C98FB01329681E090E0A9
:1012700057E444E09C012150310971F021303105DF
:1012800081F44EBD0DB407FEFDCF2EB5019631970A
:101290009C012150310991F75EBD0DB407FEFDCFD1
:1012A000F4CF1EBC0DB407FEFDCF2EB520838330D6
:1012B000910561F72C9A08952C98FC01349621E051
:1012C00030E098E02130310559F49EBD0DB407FEA1
:1012D000FDCF8EB52F5F3F4F319721303105A9F3F8
:1012E0001EBC0DB407FEFDCF8EB5808325303105C1
:1012F00089F72C9A2C98FB01329681E090E058E413
:1013000044E09C012150310971F02130310581F414
:101310004EBD0DB407FEFDCF2EB5019631979C0151
:101320002150310991F75EBD0DB407FEFDCFF4CF1A
:101330001EBC0DB407FEFDCF2EB520838330910572
:1013400061F72C9A08952C98FC01339621E030E047
:101350009CE4A9014150510979F04130510589F4CB
:101360001EBC0DB407FEFDCF8EB52F5F3F4F3197EA
:10137000A9014150510989F79EBD0DB407FEFDCF6B
:10138000F3CF1EBC0DB407FEFDCF8EB58083243095
:10139000310559F72C9A08952C98FC01349621E0D8
:1013A00030E09DE02130310559F49EBD0DB407FEBB
:1013B000FDCF8EB52F5F3F4F319721303105A9F317
:1013C0001EBC0DB407FEFDCF8EB5808325303105E0
:1013D00089F72C9A08952C98FC01349621E030E08E
:1013E0009EE02130310559F49EBD0DB407FEFDCFBE
:1013F0008EB52F5F3F4F319721303105A9F31EBCC9
:101400000DB407FEFDCF8EB580832530310589F7F9
:101410002C9A08952C98FC01349621E030E09FE04E
:101420002130310559F49EBD0DB407FEFDCF8EB5B8
:101430002F5F3F4F319721303105A9F31EBC0DB40A
:1014400007FEFDCF8EB580832530310589F72C9AB4
:101450002C98FB01329681E090E05FE444E09C012F
:101460002150310971F02130310581F44EBD0DB4A8
:1014700007FEFDCF2EB5019631979C012150310911
:1014800091F75EBD0DB407FEFDCFF4CF1EBC0DB4C9
:1014900007FEFDCF2EB520838330910561F72C9A8E
:1014A00008952C98FC01349621E030E090E1213041
:1014B000310559F49EBD0DB407FEFDCF8EB52F5FEB
:1014C0003F4F319721303105A9F31EBC0DB407FE03
:1014D000FDCF8EB580832530310589F72C9A08958C
:1014E0002C98FC01349621E030E092E12130310566
:1014F00059F49EBD0DB407FEFDCF8EB52F5F3F4F53
:10150000319721303105A9F31EBC0DB407FEFDCF84
:101510008EB580832530310589F72C9A2C98FB01F4
:10152000359681E090E052E544E09C01215031097C
:1015300071F02130310581F44EBD0DB407FEFDCFB1
:101540002EB5019631979C012150310991F75EBD6E
:101550000DB407FEFDCFF4CF1EBC0DB407FEFDCFCA
:101560002EB520838630910561F72C9A08952C982A
:10157000FC01349621E030E093E12130310559F44B
:101580009EBD0DB407FEFDCF8EB52F5F3F4F319747
:1015900021303105A9F31EBC0DB407FEFDCF8EB579
:1015A00080832530310589F72C9A08952C98FC0109
:1015B000349621E030E094E12130310559F49EBDAC
:1015C0000DB407FEFDCF8EB52F5F3F4F3197213011
:1015D0003105A9F31EBC0DB407FEFDCF8EB5808387
:1015E0002530310589F72C9A2C98FB01329681E041
:1015F00090E054E544E09C012150310971F0213024
:10160000310581F44EBD0DB407FEFDCF2EB5019618
:1016100031979C012150310991F75EBD0DB407FE51
:10162000FDCFF4CF1EBC0DB407FEFDCF2EB5208339
:101630008330910561F72C9A0895DC018FB7F894F7
:101640002C98FD01359621E030E045E1213031054F
:1016500059F44EBD0DB407FEFDCF9EB52F5F3F4F31
:10166000319721303105A9F31EBC0DB407FEFDCF23
:101670009EB590832530310589F72C9A2C9821E06E
:1016800030E065E594E0A9014150510971F0413025
:10169000510581F49EBD0DB407FEFDCF4EB52F5F01
:1016A0003F4FA9014150510991F76EBD0DB407FE9E
:1016B000FDCFF4CF1EBC0DB407FEFDCF4EB54C934D
:1016C0002330310561F72C9A8FBF0895CF932C9862
:1016D000DC011496E1E0F0E095E1E130F10551F430
:1016E0009EBD0DB407FEFDCF8EB531961197E1304A
:1016F000F105B1F31EBC0DB407FEFDCF8EB58C9382
:10170000E530F10591F72C9A2C98DB01159681E0D4
:1017100090E0C5E574E0FC01319761F0319779F410
:101720007EBD0DB407FEFDCF6EB501961197FC018D
:101730003197A1F7CEBD0DB407FEFDCFF5CF1EBC8E
:101740000DB407FEFDCF6EB56C938630910569F739
:101750002C9A2C98FA01359681E090E0A5E558E0A6
:10176000BC016150710971F06130710581F45EBD99
:101770000DB407FEFDCF4EB501963197BC01615007
:10178000710991F7AEBD0DB407FEFDCFF4CF1EBCBD
:101790000DB407FEFDCF4EB540838630910561F74D
:1017A0002C9A2C98F901339681E090E065E53CE0B5
:1017B000AC014150510971F04130510581F43EBDF9
:1017C0000DB407FEFDCF2EB501963197AC01415007
:1017D000510991F76EBD0DB407FEFDCFF4CF1EBCCD
:1017E0000DB407FEFDCF2EB520838430910561F73F
:1017F0002C9ACF910895DC018FB7F8942C98FD01B5
:10180000359621E030E047E12130310559F44EBDF5
:101810000DB407FEFDCF9EB52F5F3F4F31972130AE
:101820003105A9F31EBC0DB407FEFDCF9EB5908314
:101830002530310589F72C9A2C9821E030E067E5B6
:1018400094E0A9014150510971F04130510581F4F2
:101850009EBD0DB407FEFDCF4EB52F5F3F4FA901D2
:101860004150510991F76EBD0DB407FEFDCFF4CF85
:101870001EBC0DB407FEFDCF4EB54C932330310591
:1018800061F72C9A8FBF08952C98FC01349621E0C3
:1018900030E097E12130310559F49EBD0DB407FECB
:1018A000FDCF8EB52F5F3F4F319721303105A9F322
:1018B0001EBC0DB407FEFDCF8EB5808325303105EB
:1018C00089F72C9A2C98FB01359681E090E077E51A
:1018D00064E09C012150310971F02130310581F41F
:1018E0006EBD0DB407FEFDCF2EB5019631979C015C
:1018F0002150310991F77EBD0DB407FEFDCFF4CF25
:101900001EBC0DB407FEFDCF2EB520838630910599
:1019100061F72C9A2C98FA01339681E090E057E514
:1019200048E09C012150310971F02130310581F4EA
:101930004EBD0DB407FEFDCF2EB5019631979C012B
:101940002150310991F75EBD0DB407FEFDCFF4CFF4
:101950001EBC0DB407FEFDCF2EB52083843091054B
:1019600061F72C9A08952C98FC01329621E030E022
:1019700098E12130310559F49EBD0DB407FEFDCF2D
:101980008EB52F5F3F4F319721303105A9F31EBC33
:101990000DB407FEFDCF8EB580832330310589F766
:1019A0002C9A08952C98FC01349621E030E09AE1BD
:1019B0002130310559F49EBD0DB407FEFDCF8EB523
:1019C0002F5F3F4F319721303105A9F31EBC0DB475
:1019D00007FEFDCF8EB580832530310589F72C9A1F
:1019E00008952C98FC01349621E030E09DE12130EF
:1019F000310559F49EBD0DB407FEFDCF8EB52F5FA6
:101A00003F4F319721303105A9F31EBC0DB407FEBD
:101A1000FDCF8EB580832530310589F72C9A089546
:101A20002C98FC01349621E030E09EE12130310514
:101A300059F49EBD0DB407FEFDCF8EB52F5F3F4F0D
:101A4000319721303105A9F31EBC0DB407FEFDCF3F
:101A50008EB580832530310589F72C9A08952C980E
:101A6000FC01349621E030E09FE12130310559F44A
:101A70009EBD0DB407FEFDCF8EB52F5F3F4F319752
:101A800021303105A9F31EBC0DB407FEFDCF8EB584
:101A900080832530310589F72C9A0895FF920F93A2
:101AA0001F93CF93DF932C98EC012396E1E0F0E0B5
:101AB00083E6F82E92E0DF01119761F0119779F437
:101AC0009EBD0DB407FEFDCF8EB531962197DF0187
:101AD0001197A1F7FEBC0DB407FEFDCFF5CF1EBCDC
:101AE0000DB407FEFDCF8EB58883E430F10569F7AC
:101AF0002C9A2C98DB01139681E090E0C3E674E009
:101B0000FC01319761F0319779F47EBD0DB407FE89
:101B1000FDCF6EB501961197FC013197A1F7CEBDAF
:101B20000DB407FEFDCFF5CF1EBC0DB407FEFDCFF3
:101B30006EB56C938430910569F72C9A2C98FA0154
:101B4000359681E090E0A3E65CE0BC01615071094C
:101B500071F06130710581F45EBD0DB407FEFDCFFB
:101B60004EB501963197BC016150710991F7AEBD38
:101B70000DB407FEFDCFF4CF1EBC0DB407FEFDCFA4
:101B80004EB540838630910561F72C9A2C98F90167
:101B9000339681E090E063E632E1AC0141505109B7
:101BA00071F04130510581F43EBD0DB407FEFDCF0B
:101BB0002EB501963197AC014150510991F76EBD98
:101BC0000DB407FEFDCFF4CF1EBC0DB407FEFDCF54
:101BD0002EB520838430910561F72C9A2C98F8015A
:101BE000349681E090E053E64EE19C0121503109AA
:101BF00071F02130310581F44EBD0DB407FEFDCFEB
:101C00002EB5019631979C012150310991F75EBDA7
:101C10000DB407FEFDCFF4CF1EBC0DB407FEFDCF03
:101C20002EB520838530910561F72C9ADF91CF91F5
:101C30001F910F91FF9008952C98FC01349621E09C
:101C400030E094E22130310559F49EBD0DB407FE19
:101C5000FDCF8EB52F5F3F4F319721303105A9F36E
:101C60001EBC0DB407FEFDCF8EB580832530310537
:101C700089F72C9A2C98FB01359681E090E074E668
:101C800064E09C012150310971F02130310581F46B
:101C90006EBD0DB407FEFDCF2EB5019631979C01A8
:101CA0002150310991F77EBD0DB407FEFDCFF4CF71
:101CB0001EBC0DB407FEFDCF2EB5208386309105E6
:101CC00061F72C9A2C98FA01359681E090E054E661
:101CD00048E09C012150310971F02130310581F437
:101CE0004EBD0DB407FEFDCF2EB5019631979C0178
:101CF0002150310991F75EBD0DB407FEFDCFF4CF41
:101D00001EBC0DB407FEFDCF2EB520838630910595
:101D100061F72C9A08952C98FC01359621E030E06B
:101D200096E6A9014150510979F04130510589F4F5
:101D30001EBC0DB407FEFDCF8EB52F5F3F4F319710
:101D4000A9014150510989F79EBD0DB407FEFDCF91
:101D5000F3CF1EBC0DB407FEFDCF8EB580832630B9
:101D6000310559F72C9A08952C98FC01359621E0FD
:101D700030E066E698E0A9014150510979F0413020
:101D8000510589F49EBD0DB407FEFDCF8EB52F5FC2
:101D90003F4F3197A9014150510989F76EBD0DB4EC
:101DA00007FEFDCFF3CF1EBC0DB407FEFDCF8EB5F1
:101DB00080832630310559F72C9A08952C98FC0120
:101DC000359621E030E066E69CE0A90141505109DA
:101DD00079F04130510589F49EBD0DB407FEFDCF69
:101DE0008EB52F5F3F4F3197A9014150510989F7B7
:101DF0006EBD0DB407FEFDCFF3CF1EBC0DB407FEC4
:101E0000FDCF8EB580832630310559F72C9A089581
:101E10002C98FC01359621E030E066E690E1A901BE
:101E20004150510979F04130510589F49EBD0DB4FE
:101E300007FEFDCF8EB52F5F3F4F3197A90141506F
:101E4000510989F76EBD0DB407FEFDCFF3CF1EBC5F
:101E50000DB407FEFDCF8EB580832630310559F7CE
:101E60002C9A08952C98FC01359621E030E066E626
:101E700094E1A9014150510979F04130510589F4AB
:101E80009EBD0DB407FEFDCF8EB52F5F3F4F31973E
:101E9000A9014150510989F76EBD0DB407FEFDCF70
:101EA000F3CF1EBC0DB407FEFDCF8EB58083263068
:101EB000310559F72C9A08952C98FC01359621E0AC
:101EC00030E066E698E1A9014150510979F04130CE
:101ED000510589F49EBD0DB407FEFDCF8EB52F5F71
:101EE0003F4F3197A9014150510989F76EBD0DB49B
:101EF00007FEFDCFF3CF1EBC0DB407FEFDCF8EB5A0
:101F000080832630310559F72C9A08952C98FC01CE
:101F1000359621E030E066E69CE1A9014150510987
:101F200079F04130510589F49EBD0DB407FEFDCF17
:101F30008EB52F5F3F4F3197A9014150510989F765
:101F40006EBD0DB407FEFDCFF3CF1EBC0DB407FE72
:101F5000FDCF8EB580832630310559F72C9A089530
:101F60002C98FC01359621E030E066E690E2A9016C
:101F70004150510979F04130510589F49EBD0DB4AD
:101F800007FEFDCF8EB52F5F3F4F3197A90141501E
:101F9000510989F76EBD0DB407FEFDCFF3CF1EBC0E
:101FA0000DB407FEFDCF8EB580832630310559F77D
:101FB0002C9A08952C98FC01359621E030E066E6D5
:101FC00094E2A9014150510979F04130510589F459
:101FD0009EBD0DB407FEFDCF8EB52F5F3F4F3197ED
:101FE000A9014150510989F76EBD0DB407FEFDCF1F
:101FF000F3CF1EBC0DB407FEFDCF8EB58083263017
:10200000310559F72C9A08952C98FC01359621E05A
:1020100030E066E698E2A9014150510979F041307B
:10202000510589F49EBD0DB407FEFDCF8EB52F5F1F
:102030003F4F3197A9014150510989F76EBD0DB449
:1020400007FEFDCFF3CF1EBC0DB407FEFDCF8EB54E
:1020500080832630310559F72C9A0895BF92CF928C
:10206000DF92EF92FF920F931F93CF93DF932C9801
:10207000EC012396E1E0F0E087E6B82E92E0DF0184
:10208000119761F0119779F49EBD0DB407FEFDCF55
:102090008EB531962197DF011197A1F7BEBC0DB423
:1020A00007FEFDCFF5CF1EBC0DB407FEFDCF8EB5EC
:1020B0008883E430F10569F72C9A2C98DB0113969C
:1020C00081E090E0C7E674E0FC01319761F0319760
:1020D00079F47EBD0DB407FEFDCF6EB50196119764
:1020E000FC013197A1F7CEBD0DB407FEFDCFF5CFB2
:1020F0001EBC0DB407FEFDCF6EB56C938430910508
:1021000069F72C9A2C98FA01339681E090E0A7E6C3
:1021100056E0BC016150710971F06130710581F4C4
:102120005EBD0DB407FEFDCF4EB501963197BC01E3
:102130006150710991F7AEBD0DB407FEFDCFF4CF2C
:102140001EBC0DB407FEFDCF4EB540838430910513
:1021500061F72C9A2C98F901359681E090E067E6BA
:1021600038E0AC014150510971F04130510581F422
:102170003EBD0DB407FEFDCF2EB501963197AC01E3
:102180004150510991F76EBD0DB407FEFDCFF4CF5C
:102190001EBC0DB407FEFDCF2EB520838630910501
:1021A00061F72C9A2C98F801339681E090E057E67D
:1021B00040E29C012150310971F02130310581F458
:1021C0004EBD0DB407FEFDCF2EB5019631979C0193
:1021D0002150310991F75EBD0DB407FEFDCFF4CF5C
:1021E0001EBC0DB407FEFDCF2EB5208384309105B3
:1021F00061F72C9A2C98F701339681E090E057E62E
:1022000044E29C012150310971F02130310581F403
:102210004EBD0DB407FEFDCF2EB5019631979C0142
:102220002150310991F75EBD0DB407FEFDCFF4CF0B
:102230001EBC0DB407FEFDCF2EB520838430910562
:1022400061F72C9A2C98F601339681E090E057E6DE
:1022500046E29C012150310971F02130310581F4B1
:102260004EBD0DB407FEFDCF2EB5019631979C01F2
:102270002150310991F75EBD0DB407FEFDCFF4CFBB
:102280001EBC0DB407FEFDCF2EB520838430910512
:1022900061F72C9ADF91CF911F910F91FF90EF90F2
:1022A000DF90CF90BF900895EF92FF920F931F930E
:1022B000CF93DF932C98EC012596E1E0F0E098E6CF
:1022C000DF01119761F0119779F41EBC0DB407FE80
:1022D000FDCF8EB531962197DF011197A1F79EBDF5
:1022E0000DB407FEFDCFF5CF1EBC0DB407FEFDCF2C
:1022F0008EB58883E630F10569F72C9A2C98EB01AE
:10230000229681E090E0B8E6ABE0FC01319761F005
:10231000319779F4AEBD0DB407FEFDCFEEB5019651
:102320002197FC013197A1F7BEBD0DB407FEFDCF8B
:10233000F5CF1EBC0DB407FEFDCFEEB5E8838330AC
:10234000910569F72C9A2C98FA01349681E090E077
:10235000A8E65CE0BC016150710971F06130710563
:1023600081F45EBD0DB407FEFDCF4EB501963197E9
:10237000BC016150710991F7AEBD0DB407FEFDCFF0
:10238000F4CF1EBC0DB407FEFDCF4EB540838530A3
:10239000910561F72C9A2C98F901359681E090E02F
:1023A00068E63CE2AC014150510971F04130510501
:1023B00081F43EBD0DB407FEFDCF2EB501963197D9
:1023C000AC014150510991F76EBD0DB407FEFDCF30
:1023D000F4CF1EBC0DB407FEFDCF2EB52083863092
:1023E000910561F72C9A2C98F801359681E090E0E0
:1023F00058E640E39C012150310971F0213031054C
:1024000081F44EBD0DB407FEFDCF2EB50196319778
:102410009C012150310991F75EBD0DB407FEFDCF3F
:10242000F4CF1EBC0DB407FEFDCF2EB52083863041
:10243000910561F72C9A2C98F701329681E090E093
:1024400058E644E39C012150310971F021303105F7
:1024500081F44EBD0DB407FEFDCF2EB50196319728
:102460009C012150310991F75EBD0DB407FEFDCFEF
:10247000F4CF1EBC0DB407FEFDCF2EB520838330F4
:10248000910561F72C9ADF91CF911F910F91FF90E9
:10249000EF9008950F931F93CF93DF932C98EC0147
:1024A0002396E1E0F0E09AE6DF01119761F01197E1
:1024B00079F41EBC0DB407FEFDCF8EB53196219781
:1024C000DF011197A1F79EBD0DB407FEFDCFF5CF3B
:1024D0001EBC0DB407FEFDCF8EB58883E430F10538
:1024E00069F72C9A2C98DB01149681E090E0CAE6FB
:1024F00073E0FC01319761F0319779F47EBD0DB442
:1025000007FEFDCF6EB501961197FC013197A1F73B
:10251000CEBD0DB407FEFDCFF5CF1EBC0DB407FE3A
:10252000FDCF6EB56C938530910569F72C9A2C9888
:10253000FA01339681E090E0AAE656E0BC016150D2
:10254000710971F06130710581F45EBD0DB407FE53
:10255000FDCF4EB501963197BC016150710991F7DD
:10256000AEBD0DB407FEFDCFF4CF1EBC0DB407FE0B
:10257000FDCF4EB540838430910561F72C9A2C989D
:10258000F901329681E090E07AE66BE0AC014150CF
:10259000510971F04130510581F46EBD0DB407FE53
:1025A000FDCF4EB501963197AC014150510991F7DD
:1025B0007EBD0DB407FEFDCFF4CF1EBC0DB407FEEB
:1025C000FDCF4EB540838330910561F72C9A2C984E
:1025D000F801329681E090E05AE64CE09C012150EF
:1025E000310971F02130310581F44EBD0DB407FE83
:1025F000FDCF2EB5019631979C012150310991F7FD
:102600005EBD0DB407FEFDCFF4CF1EBC0DB407FEBA
:10261000FDCF2EB520838330910561F72C9ADF9191
:10262000CF911F910F910895CF932C98DC011596AF
:1026300021E030E0CBE697E0F901319769F031977E
:1026400081F49EBD0DB407FEFDCF8EB52F5F3F4FC9
:102650001197F901319799F7CEBD0DB407FEFDCF63
:10266000F4CF1EBC0DB407FEFDCF8EB58C93263083
:10267000310561F72C9A2C98FB01329681E090E0AD
:102680007BE66BE09C012150310971F0213031056E
:1026900081F46EBD0DB407FEFDCF2EB501963197C6
:1026A0009C012150310991F77EBD0DB407FEFDCF8D
:1026B000F4CF1EBC0DB407FEFDCF2EB520838330B2
:1026C000910561F72C9A2C98FA01329681E090E0FE
:1026D0005BE64EE09C012150310971F0213031055B
:1026E00081F44EBD0DB407FEFDCF2EB50196319796
:1026F0009C012150310991F75EBD0DB407FEFDCF5D
:10270000F4CF1EBC0DB407FEFDCF2EB52083833061
:10271000910561F72C9ACF910895EF92FF920F9354
:102720001F93CF93DF932C98EC012396E1E0F0E028
:102730009CE6DF01119761F0119779F41EBC0DB48E
:1027400007FEFDCF8EB531962197DF011197A1F7D6
:102750009EBD0DB407FEFDCFF5CF1EBC0DB407FE28
:10276000FDCF8EB58883E430F10569F72C9A2C985B
:10277000EB01229681E090E0BCE6A2E0FC013197FB
:1027800061F0319779F4AEBD0DB407FEFDCFEEB523
:1027900001962197FC013197A1F7BEBD0DB407FE4C
:1027A000FDCFF5CF1EBC0DB407FEFDCFEEB5E8831F
:1027B0008330910569F72C9A2C98DA01129681E002
:1027C00090E0FCE6E3E0BC016150710971F061301A
:1027D000710581F4EEBD0DB407FEFDCF6EB5019617
:1027E0001197BC016150710991F7FEBD0DB407FE50
:1027F000FDCFF4CF1EBC0DB407FEFDCF6EB56C93BC
:102800008330910561F72C9A2C98F901329681E07A
:1028100090E07CE664E0AC014150510971F0413038
:10282000510581F46EBD0DB407FEFDCF4EB5019686
:102830003197AC014150510991F77EBD0DB407FEAF
:10284000FDCFF4CF1EBC0DB407FEFDCF4EB54083C7
:102850008330910561F72C9A2C98F801359681E028
:1028600090E05CE646E09C012150310971F0213096
:10287000310581F44EBD0DB407FEFDCF2EB5019696
:1028800031979C012150310991F75EBD0DB407FECF
:10289000FDCFF4CF1EBC0DB407FEFDCF2EB52083B7
:1028A0008630910561F72C9A2C98F701339681E0D8
:1028B00090E05CE64AE09C012150310971F0213042
:1028C000310581F44EBD0DB407FEFDCF2EB5019646
:1028D00031979C012150310991F75EBD0DB407FE7F
:1028E000FDCFF4CF1EBC0DB407FEFDCF2EB5208367
:1028F0008430910561F72C9ADF91CF911F910F9150
:10290000FF90EF9008952C98FC01359621E030E07F
:102910009DE6A9014150510979F04130510589F4F2
:102920001EBC0DB407FEFDCF8EB52F5F3F4F319714
:10293000A9014150510989F79EBD0DB407FEFDCF95
:10294000F3CF1EBC0DB407FEFDCF8EB580832630BD
:10295000310559F72C9A08952C98FC01339621E003
:1029600030E06DE694E0A9014150510979F0413021
:10297000510589F49EBD0DB407FEFDCF8EB52F5FC6
:102980003F4F3197A9014150510989F76EBD0DB4F0
:1029900007FEFDCFF3CF1EBC0DB407FEFDCF8EB5F5
:1029A00080832430310559F72C9A08952C98FC0126
:1029B000339621E030E06DE696E0A90141505109DF
:1029C00079F04130510589F49EBD0DB407FEFDCF6D
:1029D0008EB52F5F3F4F3197A9014150510989F7BB
:1029E0006EBD0DB407FEFDCFF3CF1EBC0DB407FEC8
:1029F000FDCF8EB580832430310559F72C9A089588
:102A00002C98FC01339621E030E06DE698E0A901B6
:102A10004150510979F04130510589F49EBD0DB402
:102A200007FEFDCF8EB52F5F3F4F3197A901415073
:102A3000510989F76EBD0DB407FEFDCFF3CF1EBC63
:102A40000DB407FEFDCF8EB580832430310559F7D4
:102A50002C9A08952C98FC01359621E030E06DE623
:102A60009AE0A9014150510979F04130510589F4AA
:102A70009EBD0DB407FEFDCF8EB52F5F3F4F319742
:102A8000A9014150510989F76EBD0DB407FEFDCF74
:102A9000F3CF1EBC0DB407FEFDCF8EB5808326306C
:102AA000310559F72C9A08952C98FC01359621E0B0
:102AB00030E06DE69EE0A9014150510979F04130C6
:102AC000510589F49EBD0DB407FEFDCF8EB52F5F75
:102AD0003F4F3197A9014150510989F76EBD0DB49F
:102AE00007FEFDCFF3CF1EBC0DB407FEFDCF8EB5A4
:102AF00080832630310559F72C9A08952C98029638
:102B000021E030E07DE662E1A9014150510979F010
:102B10004130510589F46EBD0DB407FEFDCF4EB5B1
:102B20002F5F3F4F0197A9014150510989F77EBDA1
:102B30000DB407FEFDCFF3CF1EBC0DB407FEFDCFD5
:102B40004EB5FC0140832330310551F72C9A08958E
:102B5000BF92CF92DF92EF92FF920F931F93CF938A
:102B6000DF932C98EC012496A1E0B0E090E8B92E18
:102B70009EE6FD013197E130F105A9F0E230F10563
:102B8000F1F0EF2BB1F01EBC0DB407FEFDCF8EB5FA
:102B90008883A530B105C9F011962197FD013197C1
:102BA000E130F10559F7BEBC0DB407FEFDCF8EB57F
:102BB000F3CF9EBD0DB407FEFDCF8EB5EDCF1EBC8D
:102BC0000DB407FEFDCF8EB5E7CF2C9A2C986D5F24
:102BD0007F4FE1E0F0E086E8B82EB0E1AEE6CF014D
:102BE000019781309105C1F08230910509F439C116
:102BF000892BC1F01EBC0DB407FEFDCF8EB5EB01D5
:102C00008883E430F105A1F0319661507109CF015C
:102C100001978130910541F7BEBC0DB407FEFDCF91
:102C20008EB5F2CFAEBD0DB407FEFDCF8EB5ECCFA5
:102C30002C9A2C98EA01249661E070E0A0E8F0E27A
:102C4000EEE6CB01019781309105B1F0823091051C
:102C5000F9F0892BB9F01EBC0DB407FEFDCF8EB57F
:102C6000888365307105D1F06F5F7F4F2197CB016D
:102C700001978130910551F7AEBD0DB407FEFDCF30
:102C80008EB5F2CFEEBD0DB407FEFDCF8EB5ECCF05
:102C9000FEBD0DB407FEFDCF8EB5E6CF2C9A2C9865
:102CA000D901149641E050E0E2E870E26EE6CA0114
:102CB000019781309105B1F082309105F9F0892BAF
:102CC000B9F01EBC0DB407FEFDCF8EB58C93453018
:102CD0005105D1F04F5F5F4F1197CA0101978130C5
:102CE000910551F7EEBD0DB407FEFDCF8EB5F2CFC5
:102CF0006EBD0DB407FEFDCF8EB5ECCF7EBD0DB41D
:102D000007FEFDCF8EB5E6CF2C9A2C98F8013496AD
:102D100021E030E064E850E34EE6C90101978130DC
:102D20009105B1F082309105F9F0892BB9F01EBC04
:102D30000DB407FEFDCF8EB5808325303105D1F06F
:102D40002F5F3F4F3197C90101978130910551F7AE
:102D50006EBD0DB407FEFDCF8EB5F2CF4EBD0DB4E6
:102D600007FEFDCF8EB5ECCF5EBD0DB407FEFDCFE7
:102D70008EB5E6CF2C9A2C98F701349621E030E0FE
:102D800066E850E34EE6C901019781309105B1F044
:102D900082309105F9F0892BB9F01EBC0DB407FE05
:102DA000FDCF8EB5808325303105D1F02F5F3F4FA9
:102DB0003197C90101978130910551F76EBD0DB46E
:102DC00007FEFDCF8EB5F2CF4EBD0DB407FEFDCF91
:102DD0008EB5ECCF5EBD0DB407FEFDCF8EB5E6CF50
:102DE0002C9A2C98F601349621E030E064E850E506
:102DF0004EE6C901019781309105B1F0823091050D
:102E0000F9F0892BB9F01EBC0DB407FEFDCF8EB5CD
:102E1000808325303105D1F02F5F3F4F3197C901B5
:102E200001978130910551F76EBD0DB407FEFDCFBE
:102E30008EB5F2CF4EBD0DB407FEFDCF8EB5ECCFF3
:102E40005EBD0DB407FEFDCF8EB5E6CF2C9ADF91A7
:102E5000CF911F910F91FF90EF90DF90CF90BF9097
:102E60000895BEBD0DB407FEFDCF8EB5CDCE0F9338
:102E70001F93CF93DF932C98EC012596E1E0F0E0CF
:102E800096E7DF01119761F0119779F41EBC0DB43C
:102E900007FEFDCF8EB531962197DF011197A1F77F
:102EA0009EBD0DB407FEFDCFF5CF1EBC0DB407FED1
:102EB000FDCF8EB58883E630F10569F72C9A2C9802
:102EC000DB01159681E090E0C6E774E0FC013197E4
:102ED00061F0319779F47EBD0DB407FEFDCF6EB57C
:102EE00001961197FC013197A1F7CEBD0DB407FEF5
:102EF000FDCFF5CF1EBC0DB407FEFDCF6EB56C93B4
:102F00008630910569F72C9A2C98DA01129681E0A7
:102F100090E0F6E7ECE0BC016150710971F06130BE
:102F2000710581F4EEBD0DB407FEFDCF6EB50196BF
:102F30001197BC016150710991F7FEBD0DB407FEF8
:102F4000FDCFF4CF1EBC0DB407FEFDCF6EB56C9364
:102F50008330910561F72C9A2C98F901339681E022
:102F600090E066E736E2AC014150510971F0413022
:102F7000510581F43EBD0DB407FEFDCF2EB501967F
:102F80003197AC014150510991F76EBD0DB407FE68
:102F9000FDCFF4CF1EBC0DB407FEFDCF2EB52083B0
:102FA0008430910561F72C9A2C98F801359681E0D0
:102FB00090E056E748E29C012150310971F0213040
:102FC000310581F44EBD0DB407FEFDCF2EB501963F
:102FD00031979C012150310991F75EBD0DB407FE78
:102FE000FDCFF4CF1EBC0DB407FEFDCF2EB5208360
:102FF0008630910561F72C9ADF91CF911F910F9147
:1030000008952C98039641E050E070E861E59A013C
:103010002150310921303105C1F02230310519F13B
:10302000232BC9F01EBC0DB407FEFDCF2EB5FC014D
:10303000208344305105A9F04F5F5F4F01979A01FB
:10304000215031092130310541F77EBD0DB407FE15
:10305000FDCF2EB5F1CF6EBD0DB407FEFDCF2EB561
:10306000EBCF2C9A08951EBC0DB407FEFDCF2EB5F4
:10307000E3CF2C98FC01349621E030E090E8213039
:10308000310559F49EBD0DB407FEFDCF8EB52F5FFF
:103090003F4F319721303105A9F380818EBD0DB4AA
:1030A00007FEFDCF8EB52530310589F72C9A08959E
:1030B0002C98FC01349621E030E094E82130310571
:1030C00059F49EBD0DB407FEFDCF8EB52F5F3F4F67
:1030D000319721303105A9F380818EBD0DB407FEF3
:1030E000FDCF8EB52530310589F72C9A08952C989F
:1030F000FC01349621E030E097E82130310559F4A5
:103100009EBD0DB407FEFDCF8EB52F5F3F4F3197AB
:1031100021303105A9F380818EBD0DB407FEFDCFAE
:103120008EB52530310589F72C9A2C98FB01329603
:1031300081E090E057EC44E09C012150310971F0AE
:103140002130310581F44EBD0DB407FEFDCF2EB503
:10315000019631979C012150310991F75EBD0DB464
:1031600007FEFDCFF4CF20812EBD0DB407FEFDCFAD
:103170002EB58330910561F72C9A08952C98FC01A7
:10318000349621E030E098E82130310559F49EBDB5
:103190000DB407FEFDCF8EB52F5F3F4F3197213025
:1031A0003105A9F380818EBD0DB407FEFDCF8EB52C
:1031B0002530310589F72C9A2C98FB01329681E055
:1031C00090E058EC44E09C012150310971F021302D
:1031D000310581F44EBD0DB407FEFDCF2EB501962D
:1031E00031979C012150310991F75EBD0DB407FE66
:1031F000FDCFF4CF20812EBD0DB407FEFDCF2EB53F
:103200008330910561F72C9A0895CF93DF9300D016
:1032100000D0CDB7DEB719821A821B8280E48C837E
:103220002C98FE01359681E090E03DE881309105D3
:1032300051F43EBD0DB407FEFDCF2EB5019631977A
:1032400081309105B1F320812EBD0DB407FEFDCF75
:103250002EB58530910591F72C9A0F900F900F9015
:103260000F90DF91CF910895CF93DF9300D000D0DE
:10327000CDB7DEB719821A821B8282E08C832C982C
:10328000FE01359681E090E03DE88130910551F4F2
:103290003EBD0DB407FEFDCF2EB5019631978130AE
:1032A0009105B1F320812EBD0DB407FEFDCF2EB5E3
:1032B0008530910591F72C9A0F900F900F900F90F9
:1032C000DF91CF910895CF93DF9300D000D0CDB799
:1032D000DEB719821A8281E08B831C822C98FE0152
:1032E000359681E090E03DE88130910551F43EBD96
:1032F0000DB407FEFDCF2EB50196319781309105B3
:10330000B1F320812EBD0DB407FEFDCF2EB5853063
:10331000910591F72C9A0F900F900F900F90DF91DD
:10332000CF9108952C98FC01349621E030E09DE87F
:103330002130310559F49EBD0DB407FEFDCF8EB589
:103340002F5F3F4F319721303105A9F380818EBD2A
:103350000DB407FEFDCF8EB52530310589F72C9AC7
:1033600008952C98FC01349621E030E09EE821304D
:10337000310559F49EBD0DB407FEFDCF8EB52F5F0C
:103380003F4F319721303105A9F380818EBD0DB4B7
:1033900007FEFDCF8EB52530310589F72C9A0895AB
:1033A0002C98FC01349621E030E09FE82130310573
:1033B00059F49EBD0DB407FEFDCF8EB52F5F3F4F74
:1033C000319721303105A9F380818EBD0DB407FE00
:1033D000FDCF8EB52530310589F72C9A2C98FB014D
:1033E000329681E090E05FEC44E09C01215031098D
:1033F00071F02130310581F44EBD0DB407FEFDCFD3
:103400002EB5019631979C012150310991F75EBD8F
:103410000DB407FEFDCFF4CF20812EBD0DB407FE05
:10342000FDCF2EB58330910561F72C9A08952C9825
:10343000FC01349621E030E090E92130310559F467
:103440009EBD0DB407FEFDCF8EB52F5F3F4F319768
:1034500021303105A9F380818EBD0DB407FEFDCF6B
:103460008EB52530310589F72C9A08952C98FC01EA
:10347000349621E030E092E92130310559F49EBDC7
:103480000DB407FEFDCF8EB52F5F3F4F3197213032
:103490003105A9F380818EBD0DB407FEFDCF8EB539
:1034A0002530310589F72C9A2C98FB01359681E05F
:1034B00090E052ED44E09C012150310971F021303F
:1034C000310581F44EBD0DB407FEFDCF2EB501963A
:1034D00031979C012150310991F75EBD0DB407FE73
:1034E000FDCFF4CF20812EBD0DB407FEFDCF2EB54C
:1034F0008630910561F72C9A08952C98FC0134963A
:1035000021E030E093E92130310559F49EBD0DB43E
:1035100007FEFDCF8EB52F5F3F4F3197213031052C
:10352000A9F380818EBD0DB407FEFDCF8EB5253089
:10353000310589F72C9A08952C98FC01349621E0E6
:1035400030E094E92130310559F49EBD0DB407FEF9
:10355000FDCF8EB52F5F3F4F319721303105A9F355
:1035600080818EBD0DB407FEFDCF8EB525303105AF
:1035700089F72C9A2C98FB01329681E090E054ED6B
:1035800044E09C012150310971F02130310581F472
:103590004EBD0DB407FEFDCF2EB5019631979C01AF
:1035A0002150310991F75EBD0DB407FEFDCFF4CF78
:1035B00020812EBD0DB407FEFDCF2EB583309105C1
:1035C00061F72C9A0895CF932C98DC011496E1E0D2
:1035D000F0E095E9E130F10551F49EBD0DB407FE30
:1035E000FDCF8EB531961197E130F105B1F38C9195
:1035F0008EBD0DB407FEFDCF8EB5E530F10591F718
:103600002C9A2C98DB01159681E090E0C5ED74E0D2
:10361000FC01319761F0319779F47EBD0DB407FE5E
:10362000FDCF6EB501961197FC013197A1F7CEBD84
:103630000DB407FEFDCFF5CF6C916EBD0DB407FE46
:10364000FDCF6EB58630910569F72C9A2C98FA015A
:10365000359681E090E0A5ED58E0BC01615071091C
:1036600071F06130710581F45EBD0DB407FEFDCFD0
:103670004EB501963197BC016150710991F7AEBD0D
:103680000DB407FEFDCFF4CF40814EBD0DB407FE53
:10369000FDCF4EB58630910561F72C9A2C98F90133
:1036A000339681E090E065ED3CE0AC01415051097A
:1036B00071F04130510581F43EBD0DB407FEFDCFE0
:1036C0002EB501963197AC014150510991F76EBD6D
:1036D0000DB407FEFDCFF4CF20812EBD0DB407FE43
:1036E000FDCF2EB58430910561F72C9ACF910895C6
:1036F0002C98FC01349621E030E097E92130310527
:1037000059F49EBD0DB407FEFDCF8EB52F5F3F4F20
:10371000319721303105A9F380818EBD0DB407FEAC
:10372000FDCF8EB52530310589F72C9A2C98FB01F9
:10373000359681E090E077ED64E09C0121503109FD
:1037400071F02130310581F46EBD0DB407FEFDCF5F
:103750002EB5019631979C012150310991F77EBD1C
:103760000DB407FEFDCFF4CF20812EBD0DB407FEB2
:10377000FDCF2EB58630910561F72C9A2C98FA0171
:10378000339681E090E057ED48E09C0121503109EB
:1037900071F02130310581F44EBD0DB407FEFDCF2F
:1037A0002EB5019631979C012150310991F75EBDEC
:1037B0000DB407FEFDCFF4CF20812EBD0DB407FE62
:1037C000FDCF2EB58430910561F72C9A08952C9881
:1037D000FC01329621E030E098E92130310559F4BE
:1037E0009EBD0DB407FEFDCF8EB52F5F3F4F3197C5
:1037F00021303105A9F380818EBD0DB407FEFDCFC8
:103800008EB52330310589F72C9A08952C98FC0148
:10381000349621E030E09AE92130310559F49EBD1B
:103820000DB407FEFDCF8EB52F5F3F4F319721308E
:103830003105A9F380818EBD0DB407FEFDCF8EB595
:103840002530310589F72C9A08952C98FC0134967F
:1038500021E030E09DE92130310559F49EBD0DB4E1
:1038600007FEFDCF8EB52F5F3F4F319721303105D9
:10387000A9F380818EBD0DB407FEFDCF8EB5253036
:10388000310589F72C9A08952C98FC01349621E093
:1038900030E09EE92130310559F49EBD0DB407FE9C
:1038A000FDCF8EB52F5F3F4F319721303105A9F302
:1038B00080818EBD0DB407FEFDCF8EB5253031055C
:1038C00089F72C9A08952C98FC01349621E030E079
:1038D0009FE92130310559F49EBD0DB407FEFDCF9F
:1038E0008EB52F5F3F4F319721303105A9F380818D
:1038F0008EBD0DB407FEFDCF8EB52530310589F79D
:103900002C9A0895FF920F931F93CF93DF932C98D7
:10391000EC012396E1E0F0E083EEF82E92E0DF0187
:10392000119761F0119779F49EBD0DB407FEFDCF9C
:103930008EB531962197DF011197A1F7FEBC0DB42A
:1039400007FEFDCFF5CF88818EBD0DB407FEFDCFFC
:103950008EB5E430F10569F72C9A2C98DB011396AB
:1039600081E090E0C3EE74E0FC01319761F03197A3
:1039700079F47EBD0DB407FEFDCF6EB501961197AB
:10398000FC013197A1F7CEBD0DB407FEFDCFF5CFF9
:103990006C916EBD0DB407FEFDCF6EB58430910500
:1039A00069F72C9A2C98FA01359681E090E0A3EE05
:1039B0005CE0BC016150710971F06130710581F406
:1039C0005EBD0DB407FEFDCF4EB501963197BC012B
:1039D0006150710991F7AEBD0DB407FEFDCFF4CF74
:1039E00040814EBD0DB407FEFDCF4EB5863091052A
:1039F00061F72C9A2C98F901339681E090E063EE00
:103A000032E1AC014150510971F04130510581F46E
:103A10003EBD0DB407FEFDCF2EB501963197AC012A
:103A20004150510991F76EBD0DB407FEFDCFF4CFA3
:103A300020812EBD0DB407FEFDCF2EB5843091053B
:103A400061F72C9A2C98F801349681E090E053EEBF
:103A50004EE19C012150310971F02130310581F492
:103A60004EBD0DB407FEFDCF2EB5019631979C01DA
:103A70002150310991F75EBD0DB407FEFDCFF4CFA3
:103A800020812EBD0DB407FEFDCF2EB585309105EA
:103A900061F72C9ADF91CF911F910F91FF900895BC
:103AA0002C98FC01349621E030E094EA2130310575
:103AB00059F49EBD0DB407FEFDCF8EB52F5F3F4F6D
:103AC000319721303105A9F380818EBD0DB407FEF9
:103AD000FDCF8EB52530310589F72C9A2C98FB0146
:103AE000359681E090E074EE64E09C01215031094C
:103AF00071F02130310581F46EBD0DB407FEFDCFAC
:103B00002EB5019631979C012150310991F77EBD68
:103B10000DB407FEFDCFF4CF20812EBD0DB407FEFE
:103B2000FDCF2EB58630910561F72C9A2C98FA01BD
:103B3000359681E090E054EE48E09C012150310937
:103B400071F02130310581F44EBD0DB407FEFDCF7B
:103B50002EB5019631979C012150310991F75EBD38
:103B60000DB407FEFDCFF4CF20812EBD0DB407FEAE
:103B7000FDCF2EB58630910561F72C9A08952C98CB
:103B8000FC01359621E030E096EEA9014150510943
:103B900079F04130510589F41EBC0DB407FEFDCF0C
:103BA0008EB52F5F3F4F3197A9014150510989F7D9
:103BB0009EBD0DB407FEFDCFF3CF80818EBD0DB449
:103BC00007FEFDCF8EB52630310559F72C9A0895A2
:103BD0002C98FC01359621E030E066EE98E0A901D2
:103BE0004150510979F04130510589F49EBD0DB421
:103BF00007FEFDCF8EB52F5F3F4F3197A901415092
:103C0000510989F76EBD0DB407FEFDCFF3CF80815A
:103C10008EBD0DB407FEFDCF8EB52630310559F7A8
:103C20002C9A08952C98FC01359621E030E066EE40
:103C30009CE0A9014150510979F04130510589F4C6
:103C40009EBD0DB407FEFDCF8EB52F5F3F4F319760
:103C5000A9014150510989F76EBD0DB407FEFDCF92
:103C6000F3CF80818EBD0DB407FEFDCF8EB526301B
:103C7000310559F72C9A08952C98FC01359621E0CE
:103C800030E066EE90E1A9014150510979F04130F0
:103C9000510589F49EBD0DB407FEFDCF8EB52F5F93
:103CA0003F4F3197A9014150510989F76EBD0DB4BD
:103CB00007FEFDCFF3CF80818EBD0DB407FEFDCF93
:103CC0008EB52630310559F72C9A08952C98FC01B1
:103CD000359621E030E066EE94E1A90141505109AA
:103CE00079F04130510589F49EBD0DB407FEFDCF3A
:103CF0008EB52F5F3F4F3197A9014150510989F788
:103D00006EBD0DB407FEFDCFF3CF80818EBD0DB427
:103D100007FEFDCF8EB52630310559F72C9A089550
:103D20002C98FC01359621E030E066EE98E1A9017F
:103D30004150510979F04130510589F49EBD0DB4CF
:103D400007FEFDCF8EB52F5F3F4F3197A901415040
:103D5000510989F76EBD0DB407FEFDCFF3CF808109
:103D60008EBD0DB407FEFDCF8EB52630310559F757
:103D70002C9A08952C98FC01359621E030E066EEEF
:103D80009CE1A9014150510979F04130510589F474
:103D90009EBD0DB407FEFDCF8EB52F5F3F4F31970F
:103DA000A9014150510989F76EBD0DB407FEFDCF41
:103DB000F3CF80818EBD0DB407FEFDCF8EB52630CA
:103DC000310559F72C9A08952C98FC01359621E07D
:103DD00030E066EE90E2A9014150510979F041309E
:103DE000510589F49EBD0DB407FEFDCF8EB52F5F42
:103DF0003F4F3197A9014150510989F76EBD0DB46C
:103E000007FEFDCFF3CF80818EBD0DB407FEFDCF41
:103E10008EB52630310559F72C9A08952C98FC015F
:103E2000359621E030E066EE94E2A9014150510957
:103E300079F04130510589F49EBD0DB407FEFDCFE8
:103E40008EB52F5F3F4F3197A9014150510989F736
:103E50006EBD0DB407FEFDCFF3CF80818EBD0DB4D6
:103E600007FEFDCF8EB52630310559F72C9A0895FF
:103E70002C98FC01359621E030E066EE98E2A9012D
:103E80004150510979F04130510589F49EBD0DB47E
:103E900007FEFDCF8EB52F5F3F4F3197A9014150EF
:103EA000510989F76EBD0DB407FEFDCFF3CF8081B8
:103EB0008EBD0DB407FEFDCF8EB52630310559F706
:103EC0002C9A0895BF92CF92DF92EF92FF920F93B8
:103ED0001F93CF93DF932C98EC012396E1E0F0E061
:103EE00087EEB82E92E0DF01119761F0119779F417
:103EF0009EBD0DB407FEFDCF8EB531962197DF0133
:103F00001197A1F7BEBC0DB407FEFDCFF5CF888198
:103F10008EBD0DB407FEFDCF8EB5E430F10569F717
:103F20002C9A2C98DB01139681E090E0C7EE74E0A8
:103F3000FC01319761F0319779F47EBD0DB407FE35
:103F4000FDCF6EB501961197FC013197A1F7CEBD5B
:103F50000DB407FEFDCFF5CF6C916EBD0DB407FE1D
:103F6000FDCF6EB58430910569F72C9A2C98FA0133
:103F7000339681E090E0A7EE56E0BC0161507109F4
:103F800071F06130710581F45EBD0DB407FEFDCFA7
:103F90004EB501963197BC016150710991F7AEBDE4
:103FA0000DB407FEFDCFF4CF40814EBD0DB407FE2A
:103FB000FDCF4EB58430910561F72C9A2C98F9010C
:103FC000359681E090E067EE38E0AC014150510950
:103FD00071F04130510581F43EBD0DB407FEFDCFB7
:103FE0002EB501963197AC014150510991F76EBD44
:103FF0000DB407FEFDCFF4CF20812EBD0DB407FE1A
:10400000FDCF2EB58630910561F72C9A2C98F801DA
:10401000339681E090E057EE40E29C012150310957
:1040200071F02130310581F44EBD0DB407FEFDCF96
:104030002EB5019631979C012150310991F75EBD53
:104040000DB407FEFDCFF4CF20812EBD0DB407FEC9
:10405000FDCF2EB58430910561F72C9A2C98F7018D
:10406000339681E090E057EE44E29C012150310903
:1040700071F02130310581F44EBD0DB407FEFDCF46
:104080002EB5019631979C012150310991F75EBD03
:104090000DB407FEFDCFF4CF20812EBD0DB407FE79
:1040A000FDCF2EB58430910561F72C9A2C98F6013E
:1040B000339681E090E057EE46E29C0121503109B1
:1040C00071F02130310581F44EBD0DB407FEFDCFF6
:1040D0002EB5019631979C012150310991F75EBDB3
:1040E0000DB407FEFDCFF4CF20812EBD0DB407FE29
:1040F000FDCF2EB58430910561F72C9ADF91CF91D9
:104100001F910F91FF90EF90DF90CF90BF90089597
:10411000EF92FF920F931F93CF93DF932C98EC01B4
:104120002596E1E0F0E098EEDF01119761F011973C
:1041300079F41EBC0DB407FEFDCF8EB531962197E4
:10414000DF011197A1F79EBD0DB407FEFDCFF5CF9E
:1041500088818EBD0DB407FEFDCF8EB5E630F1052A
:1041600069F72C9A2C98EB01229681E090E0B8EE4A
:10417000ABE0FC01319761F0319779F4AEBD0DB43D
:1041800007FEFDCFEEB501962197FC013197A1F70F
:10419000BEBD0DB407FEFDCFF5CFE881EEBD0DB479
:1041A00007FEFDCFEEB58330910569F72C9A2C9868
:1041B000FA01349681E090E0A8EE5CE0BC01615029
:1041C000710971F06130710581F45EBD0DB407FEB7
:1041D000FDCF4EB501963197BC016150710991F741
:1041E000AEBD0DB407FEFDCFF4CF40814EBD0DB482
:1041F00007FEFDCF4EB58530910561F72C9A2C98BE
:10420000F901359681E090E068EE3CE2AC01415066
:10421000510971F04130510581F43EBD0DB407FEE6
:10422000FDCF2EB501963197AC014150510991F760
:104230006EBD0DB407FEFDCFF4CF20812EBD0DB4B1
:1042400007FEFDCF2EB58630910561F72C9A2C988C
:10425000F801359681E090E058EE40E39C01215052
:10426000310971F02130310581F44EBD0DB407FEE6
:10427000FDCF2EB5019631979C012150310991F760
:104280005EBD0DB407FEFDCFF4CF20812EBD0DB471
:1042900007FEFDCF2EB58630910561F72C9A2C983C
:1042A000F701329681E090E058EE44E39C01215002
:1042B000310971F02130310581F44EBD0DB407FE96
:1042C000FDCF2EB5019631979C012150310991F710
:1042D0005EBD0DB407FEFDCFF4CF20812EBD0DB421
:1042E00007FEFDCF2EB58330910561F72C9ADF9143
:1042F000CF911F910F91FF90EF9008950F931F930F
:10430000CF93DF932C98EC012396E1E0F0E09AEE56
:10431000DF01119761F0119779F41EBC0DB407FE0F
:10432000FDCF8EB531962197DF011197A1F79EBD84
:104330000DB407FEFDCFF5CF88818EBD0DB407FE0D
:10434000FDCF8EB5E430F10569F72C9A2C98DB018E
:10435000149681E090E0CAEE73E0FC01319761F0C1
:10436000319779F47EBD0DB407FEFDCF6EB5019691
:104370001197FC013197A1F7CEBD0DB407FEFDCF1B
:10438000F5CF6C916EBD0DB407FEFDCF6EB58530D7
:10439000910569F72C9A2C98FA01339681E090E008
:1043A000AAEE56E0BC016150710971F061307105EF
:1043B00081F45EBD0DB407FEFDCF4EB50196319779
:1043C000BC016150710991F7AEBD0DB407FEFDCF80
:1043D000F4CF40814EBD0DB407FEFDCF4EB5843005
:1043E000910561F72C9A2C98F901329681E090E0C2
:1043F0007AEE6BE0AC014150510971F0413051054A
:1044000081F46EBD0DB407FEFDCF4EB50196319718
:10441000AC014150510991F77EBD0DB407FEFDCFAF
:10442000F4CF40814EBD0DB407FEFDCF4EB58330B5
:10443000910561F72C9A2C98F801329681E090E072
:104440005AEE4CE09C012150310971F021303105C8
:1044500081F44EBD0DB407FEFDCF2EB50196319708
:104460009C012150310991F75EBD0DB407FEFDCFCF
:10447000F4CF20812EBD0DB407FEFDCF2EB58330C5
:10448000910561F72C9ADF91CF911F910F910895BB
:10449000CF932C98DC01159621E030E0CBEE97E02D
:1044A000F901319769F0319781F49EBD0DB407FE93
:1044B000FDCF8EB52F5F3F4F1197F901319799F7D7
:1044C000CEBD0DB407FEFDCFF4CF8C918EBD0DB4E3
:1044D00007FEFDCF8EB52630310561F72C9A2C985A
:1044E000FB01329681E090E07BEE6BE09C01215075
:1044F000310971F02130310581F46EBD0DB407FE34
:10450000FDCF2EB5019631979C012150310991F7CD
:104510007EBD0DB407FEFDCFF4CF20812EBD0DB4BE
:1045200007FEFDCF2EB58330910561F72C9A2C98AC
:10453000FA01329681E090E05BEE4EE09C01215062
:10454000310971F02130310581F44EBD0DB407FE03
:10455000FDCF2EB5019631979C012150310991F77D
:104560005EBD0DB407FEFDCFF4CF20812EBD0DB48E
:1045700007FEFDCF2EB58330910561F72C9ACF91C0
:1045800008952C98FC01359621E030E09DEEA901BC
:104590004150510979F04130510589F41EBC0DB4E8
:1045A00007FEFDCF8EB52F5F3F4F3197A9014150D8
:1045B000510989F79EBD0DB407FEFDCFF3CF808171
:1045C0008EBD0DB407FEFDCF8EB52630310559F7EF
:1045D0002C9A08952C98FC01339621E030E06DEE82
:1045E00094E0A9014150510979F04130510589F415
:1045F0009EBD0DB407FEFDCF8EB52F5F3F4F3197A7
:10460000A9014150510989F76EBD0DB407FEFDCFD8
:10461000F3CF80818EBD0DB407FEFDCF8EB5243063
:10462000310559F72C9A08952C98FC01339621E016
:1046300030E06DEE96E0A9014150510979F041302A
:10464000510589F49EBD0DB407FEFDCF8EB52F5FD9
:104650003F4F3197A9014150510989F76EBD0DB403
:1046600007FEFDCFF3CF80818EBD0DB407FEFDCFD9
:104670008EB52430310559F72C9A08952C98FC01F9
:10468000339621E030E06DEE98E0A90141505109E8
:1046900079F04130510589F49EBD0DB407FEFDCF80
:1046A0008EB52F5F3F4F3197A9014150510989F7CE
:1046B0006EBD0DB407FEFDCFF3CF80818EBD0DB46E
:1046C00007FEFDCF8EB52430310559F72C9A089599
:1046D0002C98FC01359621E030E06DEE9AE0A901BE
:1046E0004150510979F04130510589F49EBD0DB416
:1046F00007FEFDCF8EB52F5F3F4F3197A901415087
:10470000510989F76EBD0DB407FEFDCFF3CF80814F
:104710008EBD0DB407FEFDCF8EB52630310559F79D
:104720002C9A08952C98FC01359621E030E06DEE2E
:104730009EE0A9014150510979F04130510589F4B9
:104740009EBD0DB407FEFDCF8EB52F5F3F4F319755
:10475000A9014150510989F76EBD0DB407FEFDCF87
:10476000F3CF80818EBD0DB407FEFDCF8EB5263010
:10477000310559F72C9A08952C98029621E030E0E3
:104780007DEE62E1A9014150510979F041305105B6
:1047900089F46EBD0DB407FEFDCF4EB52F5F3F4FC0
:1047A0000197A9014150510989F77EBD0DB407FE5B
:1047B000FDCFF3CFFC0140814EBD0DB407FEFDCF10
:1047C0004EB52330310551F72C9A0895BF92CF9200
:1047D000DF92EF92FF920F931F93CF93DF932C986A
:1047E000EC012496A1E0B0E090E8B92E9EEEFD0128
:1047F0003197E130F105A9F0E230F105F1F0EF2B4E
:10480000B1F088818EBD0DB407FEFDCF8EB5A53009
:10481000B105C9F011962197FD013197E130F105FD
:1048200059F7BEBC0DB407FEFDCF8EB5F3CF9EBDCC
:104830000DB407FEFDCF8EB5EDCF1EBC0DB407FE47
:10484000FDCF8EB5E7CF2C9A2C986D5F7F4FE1E0BE
:10485000F0E086E8B82EB0E1AEEECF0101978130EE
:104860009105C1F08230910509F439C1892BC1F05D
:10487000EB0188818EBD0DB407FEFDCF8EB5E4300F
:10488000F105A1F0319661507109CF010197813096
:10489000910541F7BEBC0DB407FEFDCF8EB5F2CF3A
:1048A000AEBD0DB407FEFDCF8EB5ECCF2C9A2C9883
:1048B000EA01249661E070E0A0E8F0E2EEEECB01C0
:1048C000019781309105B1F082309105F9F0892B83
:1048D000B9F088818EBD0DB407FEFDCF8EB5653071
:1048E0007105D1F06F5F7F4F2197CB010197813028
:1048F000910551F7AEBD0DB407FEFDCF8EB5F2CFD9
:10490000EEBD0DB407FEFDCF8EB5ECCFFEBD0DB4F0
:1049100007FEFDCF8EB5E6CF2C9A2C98D9011496C0
:1049200041E050E0E2E870E26EEECA0101978130AA
:104930009105B1F082309105F9F0892BB9F08C9195
:104940008EBD0DB407FEFDCF8EB545305105D1F0BB
:104950004F5F5F4F1197CA0101978130910551F761
:10496000EEBD0DB407FEFDCF8EB5F2CF6EBD0DB41A
:1049700007FEFDCF8EB5ECCF7EBD0DB407FEFDCF9B
:104980008EB5E6CF2C9A2C98F801349621E030E0D1
:1049900064E850E34EEEC901019781309105B1F012
:1049A00082309105F9F0892BB9F080818EBD0DB46C
:1049B00007FEFDCF8EB525303105D1F02F5F3F4F7B
:1049C0003197C90101978130910551F76EBD0DB442
:1049D00007FEFDCF8EB5F2CF4EBD0DB407FEFDCF65
:1049E0008EB5ECCF5EBD0DB407FEFDCF8EB5E6CF24
:1049F0002C9A2C98F701349621E030E066E850E3D9
:104A00004EEEC901019781309105B1F082309105D8
:104A1000F9F0892BB9F080818EBD0DB407FEFDCF72
:104A20008EB525303105D1F02F5F3F4F3197C90149
:104A300001978130910551F76EBD0DB407FEFDCF92
:104A40008EB5F2CF4EBD0DB407FEFDCF8EB5ECCFC7
:104A50005EBD0DB407FEFDCF8EB5E6CF2C9A2C9827
:104A6000F601349621E030E064E850E54EEEC901ED
:104A7000019781309105B1F082309105F9F0892BD1
:104A8000B9F080818EBD0DB407FEFDCF8EB5253007
:104A90003105D1F02F5F3F4F3197C9010197813028
:104AA000910551F76EBD0DB407FEFDCF8EB5F2CF67
:104AB0004EBD0DB407FEFDCF8EB5ECCF5EBD0DB47F
:104AC00007FEFDCF8EB5E6CF2C9ADF91CF911F91D7
:104AD0000F91FF90EF90DF90CF90BF900895BEBDF3
:104AE0000DB407FEFDCF8EB5CDCE0F931F93CF93A0
:104AF000DF932C98EC012596E1E0F0E096EFDF01E2
:104B0000119761F0119779F41EBC0DB407FEFDCF2B
:104B10008EB531962197DF011197A1F79EBD0DB497
:104B200007FEFDCFF5CF88818EBD0DB407FEFDCF0A
:104B30008EB5E630F10569F72C9A2C98DB011596B5
:104B400081E090E0C6EF74E0FC01319761F03197AD
:104B500079F47EBD0DB407FEFDCF6EB501961197B9
:104B6000FC013197A1F7CEBD0DB407FEFDCFF5CF07
:104B70006C916EBD0DB407FEFDCF6EB5863091050C
:104B800069F72C9A2C98DA01129681E090E0F6EF02
:104B9000ECE0BC016150710971F06130710581F484
:104BA000EEBD0DB407FEFDCF6EB501961197BC01A9
:104BB0006150710991F7FEBD0DB407FEFDCFF4CF32
:104BC0006C916EBD0DB407FEFDCF6EB583309105BF
:104BD00061F72C9A2C98F901339681E090E066EF0A
:104BE00036E2AC014150510971F04130510581F478
:104BF0003EBD0DB407FEFDCF2EB501963197AC0139
:104C00004150510991F76EBD0DB407FEFDCFF4CFB1
:104C100020812EBD0DB407FEFDCF2EB58430910549
:104C200061F72C9A2C98F801359681E090E056EFC8
:104C300048E29C012150310971F02130310581F4A5
:104C40004EBD0DB407FEFDCF2EB5019631979C01E8
:104C50002150310991F75EBD0DB407FEFDCFF4CFB1
:104C600020812EBD0DB407FEFDCF2EB586309105F7
:104C700061F72C9ADF91CF911F910F910895EF92D8
:104C8000FF920F931F93CF93DF932C98EC01239601
:104C9000E1E0F0E09CEEDF01119761F0119779F40B
:104CA0001EBC0DB407FEFDCF8EB531962197DF01F6
:104CB0001197A1F79EBD0DB407FEFDCFF5CF8881FA
:104CC0008EBD0DB407FEFDCF8EB5E430F10569F75A
:104CD0002C9A2C98EB01229681E090E0BCEEA2E0A9
:104CE000FC01319761F0319779F4AEBD0DB407FE48
:104CF000FDCFEEB501962197FC013197A1F7BEBD1E
:104D00000DB407FEFDCFF5CFE881EEBD0DB407FE73
:104D1000FDCFEEB58330910569F72C9A2C98DA0116
:104D2000129681E090E0FCEEE3E0BC016150710975
:104D300071F06130710581F4EEBD0DB407FEFDCF59
:104D40006EB501961197BC016150710991F7FEBDD6
:104D50000DB407FEFDCFF4CF6C916EBD0DB407FE10
:104D6000FDCF6EB58330910561F72C9A2C98F9012F
:104D7000329681E090E07CEE64E0AC014150510954
:104D800071F04130510581F46EBD0DB407FEFDCFC9
:104D90004EB501963197AC014150510991F77EBD56
:104DA0000DB407FEFDCFF4CF40814EBD0DB407FE1C
:104DB000FDCF4EB58330910561F72C9A2C98F80100
:104DC000359681E090E05CEE46E09C01215031098F
:104DD00071F02130310581F44EBD0DB407FEFDCFD9
:104DE0002EB5019631979C012150310991F75EBD96
:104DF0000DB407FEFDCFF4CF20812EBD0DB407FE0C
:104E0000FDCF2EB58630910561F72C9A2C98F701CD
:104E1000339681E090E05CEE4AE09C01215031093C
:104E200071F02130310581F44EBD0DB407FEFDCF88
:104E30002EB5019631979C012150310991F75EBD45
:104E40000DB407FEFDCFF4CF20812EBD0DB407FEBB
:104E5000FDCF2EB58430910561F72C9ADF91CF916B
:104E60001F910F91FF90EF9008954F925F926F9274
:104E70007F928F929F92AF92BF92CF92DF92EF92EA
:104E8000FF920F931F93CF93DF93CDB7DEB76C974D
:104E90000FB6F894DEBF0FBECDBF8B013A01522E84
:104EA0000E9443074C01580117FD94C0B594A79484
:104EB000B594A794B594A794B194A194B10893E044
:104EC000A90EB11CB8016770707877FD7CC0462EC2
:104ED0008CE288169104B8F4F401E25CFF4F0C9464
:104EE0004636CE0105967C018E01075F1F4F9E015D
:104EF000235F3F4FAE014F5E5F4FBE016B5E7F4F42
:104F000044960E948D1387E893E10197F1F700C062
:104F1000000091E0591609F44DC0511019C0F30179
:104F20003197E730F105A0F4E659FF4F0C9446366F
:104F3000E5E0F0E0EC0FFD1FEA0DFB1D81E090E0E5
:104F400001C0880F4A94EAF7809590818923808375
:104F500087E893E10197F1F700C0000087E893E14B
:104F60000197F1F700C000009CE289169104E8F077
:104F700087E893E10197F1F700C000006C960FB647
:104F8000F894DEBF0FBECDBFDF91CF911F910F917F
:104F9000FF90EF90DF90CF90BF90AF909F908F9059
:104FA0007F906F905F904F900895F401EF58FF4FFE
:104FB0000C944636F3013197E730F10548F6E35695
:104FC000FF4F0C94463661507109686F7F6F6F5FB9
:104FD0007F4F7DCF87E0A80EB11C68CFE9E0F0E0FD
:104FE000A9CFEDE0F0E0A6CFE1E1F0E0A3CFE5E16D
:104FF000F0E0A0CFE9E1F0E09DCFE1E0F0E09ACF72
:10500000E5E0F0E0EC0FFD1FEA0DFB1D81E090E014
:1050100001C0880F4A94EAF79081892B808398CF4A
:10502000E9E0F0E0EFCFEDE0F0E0ECCFE1E1F0E03F
:10503000E9CFE5E1F0E0E6CFE9E1F0E0E3CFE1E060
:10504000F0E0E0CF2C98FE017C9681E090E05DE6F8
:1050500048E09C012150310911F40C949F3121301A
:10506000310511F00C9491314EBD0DB407FEFDCF0A
:105070002EB501963197EDCF2C98FE017C9681E0FC
:1050800090E05DE646E09C012150310911F40C945A
:105090008B312130310511F00C947D314EBD0DB4B2
:1050A00007FEFDCF2EB501963197EDCF2C98FE016E
:1050B0007C9681E090E05DE644E09C01215031095E
:1050C00011F40C9477312130310511F00C946931D1
:1050D0004EBD0DB407FEFDCF2EB501963197EDCF35
:1050E0002C98FE017E9681E090E04DE69C012150D7
:1050F000310909F455C72130310509F044C71EBCF8
:105100000DB407FEFDCF2EB501963197EFCFAE015E
:105110004F5E5F4FBE016B5E7F4FCE0149960E948E
:105120001413F1CE8E01075F1F4F9E01235F3F4F87
:10513000AE014F5E5F4FBE016B5E7F4FCE01499661
:105140000E944A12E0CECE0105967C018E01075FD7
:105150001F4F9E01235F3F4FAE014F5E5F4FBE0169
:105160006B5E7F4F44960E945411CDCECE010196C6
:105170006C0104967C018E01075F1F4F9E01235F27
:105180003F4FAE014F5E5F4FBE016B5E7F4F449657
:105190000E942E10B8CECE0101966C0104967C01BF
:1051A0008E01075F1F4F9E01235F3F4FAE014F5E91
:1051B0005F4FBE016B5E7F4F44960E94A815A3CE41
:1051C0002C98FE017B9681E090E05DE642E19C0137
:1051D0002150310911F40C94DB312130310509F0F3
:1051E00099C54EBD0DB407FEFDCF2EB50196319782
:1051F000EECF2C98FE017E9681E090E05DE64EE0D9
:105200009C012150310909F4B9C62130310509F05A
:10521000A8C64EBD0DB407FEFDCF2EB50196319741
:10522000EFCF2C98FE017E9681E090E05DE64AE0AB
:105230009C012150310909F46BC62130310509F078
:105240005AC64EBD0DB407FEFDCF2EB5019631975F
:10525000EFCF8E01075F1F4F9E01235F3F4FAE01CF
:105260004F5E5F4FBE016B5E7F4FCE0149960E943D
:10527000371749CE2C98FE017D9681E090E034E00E
:105280008130910509F052C53EBD0DB407FEFDCF3A
:105290002EB501963197F4CF2C98FE017D9681E0D2
:1052A00090E01EBC8130910529F40DB407FEFDCFBE
:1052B0002EB509C00DB407FEFDCF2EB52083853075
:1052C000910509F431C501963197EBCF2C98FE0179
:1052D0007D9681E090E03EE08130910509F086C541
:1052E0003EBD0DB407FEFDCF2EB501963197F4CF2C
:1052F0002C98FE017D9681E090E03DE081309105A3
:1053000009F068C53EBD0DB407FEFDCF2EB5019670
:105310003197F4CFBE016B5E7F4FCE0149960E945C
:105320005C09F1CDBE016B5E7F4FCE0149960E94B4
:105330001509E9CD2C98FE017E9681E090E056E6B5
:1053400048E29C012150310909F406C6213031059B
:1053500009F0F5C54EBD0DB407FEFDCF2EB5019683
:105360003197EFCF2C98FE017E9681E090E056E6D3
:1053700044E29C012150310909F4DCC5213031059A
:1053800009F0CBC54EBD0DB407FEFDCF2EB501967D
:105390003197EFCF2C98FE017E9681E090E056E6A3
:1053A00040E29C012150310909F41EC6213031052B
:1053B00009F00DC64EBD0DB407FEFDCF2EB501960A
:1053C0003197EFCF2C98FE017E9681E090E056E673
:1053D0004CE19C012150310909F472C6213031059C
:1053E00009F061C64EBD0DB407FEFDCF2EB5019686
:1053F0003197EFCF2C98FE017E9681E090E056E643
:1054000048E19C012150310909F412C621303105CF
:1054100009F001C64EBD0DB407FEFDCF2EB50196B5
:105420003197EFCF2C98FE017E9681E090E056E612
:1054300044E19C012150310909F4E8C521303105CE
:1054400009F0D7C54EBD0DB407FEFDCF2EB50196B0
:105450003197EFCF2C98FE017E9681E090E056E6E2
:1054600040E19C012150310909F418C62130310571
:1054700009F007C64EBD0DB407FEFDCF2EB501964F
:105480003197EFCF2C98FE017E9681E090E056E6B2
:105490004CE09C012150310909F494C521303105BB
:1054A00009F083C54EBD0DB407FEFDCF2EB50196A4
:1054B0003197EFCF2C98FE017E9681E090E056E682
:1054C00048E09C012150310909F4D6C5213031054D
:1054D00009F0C5C54EBD0DB407FEFDCF2EB5019632
:1054E0003197EFCF2C98FE017E9681E090E046E662
:1054F0009C012150310909F4ADC52130310509F075
:105500009CC51EBC0DB407FEFDCF2EB5019631978C
:10551000EFCFAE014F5E5F4FBE016B5E7F4FCE019E
:1055200049960E941C0EEFCC8E01075F1F4F9E0113
:10553000235F3F4FAE014F5E5F4FBE016B5E7F4FFB
:10554000CE0149960E944E0DDECC2C98FE017D9630
:1055500081E090E03FE18130910509F02FC43EBD2C
:105560000DB407FEFDCF2EB501963197F4CF2C98E0
:10557000FE017D9681E090E03EE18130910509F0E9
:1055800011C43EBD0DB407FEFDCF2EB50196319777
:10559000F4CF2C98FE017D9681E090E03DE18130D2
:1055A000910509F0E7C33EBD0DB407FEFDCF2EB552
:1055B00001963197F4CF2C98FE017D9681E090E022
:1055C0003AE18130910509F0C9C33EBD0DB407FE33
:1055D000FDCF2EB501963197F4CF2C98FE017B9626
:1055E00081E090E038E18130910509F058C63EBD78
:1055F0000DB407FEFDCF2EB501963197F4CFAE0165
:105600004F5E5F4FBE016B5E7F4FCE0149960E9499
:10561000440C79CC9E01235F3F4FAE014F5E5F4F3C
:10562000BE016B5E7F4FCE0149960E94660B6BCC2C
:10563000BE016B5E7F4FCE0149960E94D60A63CCB5
:105640002C98FE017D9681E090E033E18130910558
:1056500009F09CC33EBD0DB407FEFDCF2EB50196EB
:105660003197F4CFBE016B5E7F4FCE0149960E9409
:10567000700A49CC2C98FE017D9681E090E030E1E3
:105680008130910509F05EC33EBD0DB407FEFDCF2C
:105690002EB501963197F4CFBE016B5E7F4FCE01E0
:1056A00049960E940A0A2FCC2C98FE017D9681E033
:1056B00090E030E98130910509F0D4C33EBD0DB4CE
:1056C00007FEFDCF2EB501963197F4CFBE016B5E7C
:1056D0007F4FCE0149960E94361A4ACC2C98FE0183
:1056E0007D9681E090E033E98130910509F0C6C3F1
:1056F0003EBD0DB407FEFDCF2EB501963197F4CF18
:10570000BE016B5E7F4FCE0149960E949C1A30CC41
:105710009E01235F3F4FAE014F5E5F4FBE016B5E48
:105720007F4FCE0149960E94E31A22CCAE014F5E14
:105730005F4FBE016B5E7F4FCE0149960E94781B82
:1057400017CC2C98FE017B9681E090E038E98130FF
:10575000910509F0B1C53EBD0DB407FEFDCF2EB5D4
:1057600001963197F4CF2C98FE017D9681E090E070
:105770003AE98130910509F069C33EBD0DB407FED9
:10578000FDCF2EB501963197F4CF2C98FE017D9672
:1057900081E090E03DE98130910509F04BC33EBDC9
:1057A0000DB407FEFDCF2EB501963197F4CF2C989E
:1057B000FE017D9681E090E03EE98130910509F09F
:1057C0002DC33EBD0DB407FEFDCF2EB5019631971A
:1057D000F4CF2C98FE017D9681E090E03FE9813086
:1057E000910509F00FC33EBD0DB407FEFDCF2EB5E8
:1057F00001963197F4CF8E01075F1F4F9E01235F03
:105800003F4FAE014F5E5F4FBE016B5E7F4FCE01DB
:1058100049960E94821CACCBAE014F5E5F4FBE0129
:105820006B5E7F4FCE0149960E94501DA1CB2C98F4
:10583000FE017E9681E090E046EE9C012150310908
:1058400009F4AAC42130310509F099C41EBC0DB475
:1058500007FEFDCF2EB501963197EFCF2C98FE01B4
:105860007E9681E090E056EE48E09C01215031099F
:1058700009F480C42130310509F06FC44EBD0DB468
:1058800007FEFDCF2EB501963197EFCF2C98FE0184
:105890007E9681E090E056EE4CE09C01215031096B
:1058A00009F420C42130310509F00FC44EBD0DB4F8
:1058B00007FEFDCF2EB501963197EFCF2C98FE0154
:1058C0007E9681E090E05DEE4EE09C012150310932
:1058D00009F43EC42130310509F02DC44EBD0DB48C
:1058E00007FEFDCF2EB501963197EFCF2C98FE0124
:1058F0007B9681E090E05DEE42E19C012150310910
:1059000009F46CC52130310509F05BC54EBD0DB4FD
:1059100007FEFDCF2EB501963197EFCFCE01019650
:105920006C0104967C018E01075F1F4F9E01235F6F
:105930003F4FAE014F5E5F4FBE016B5E7F4F44969F
:105940000E94E62315CB8E01075F1F4F9E01235F48
:105950003F4FAE014F5E5F4FBE016B5E7F4FCE018A
:1059600049960E94752504CBCE0105967C018E01D7
:10597000075F1F4F9E01235F3F4FAE014F5E5F4F9A
:10598000BE016B5E7F4F44960E943F26F1CA2C9861
:10599000FE017D9681E090E030E88130910509F0CC
:1059A0009DC23EBD0DB407FEFDCF2EB501963197C9
:1059B000F4CF2C98FE017D9681E090E034E88130B0
:1059C000910509F07FC23EBD0DB407FEFDCF2EB597
:1059D00001963197F4CFBE016B5E7F4FCE014996A1
:1059E0000E947718C5CABE016B5E7F4FCE014996F3
:1059F0000E94BE18BDCA2C98FE017D9681E090E001
:105A00003DE88130910509F051C23EBD0DB407FE5D
:105A1000FDCF2EB501963197F4CF2C98FE017D96DF
:105A200081E090E03EE88130910509F033C23EBD4F
:105A30000DB407FEFDCF2EB501963197F4CFBE0110
:105A40006B5E7F4FCE0149960E94D01991CA2C9867
:105A5000FE017E9681E090E056EE40E19C012150EF
:105A6000310909F417C42130310509F006C44EBDCF
:105A70000DB407FEFDCF2EB501963197EFCF2C98D0
:105A8000FE017E9681E090E056EE44E19C012150BB
:105A9000310909F4EDC32130310509F0DCC34EBDF5
:105AA0000DB407FEFDCF2EB501963197EFCF2C98A0
:105AB000FE017E9681E090E056EE48E19C01215087
:105AC000310909F47BC32130310509F06AC34EBDA9
:105AD0000DB407FEFDCF2EB501963197EFCF2C9870
